:060000000A128A11C92F4B
:10000A0083120313A600A301A401FF30A000200855
:10001A00A500A7010830270203186528FF30A000B1
:10002A002008A5000F30A0002008A800A81B5D2802
:10003A00250A031941282608F7000030F800280885
:10004A00A0002008F9002708A1002108FA000A16D2
:10005A008A118D270A128A11013A031D3F28831239
:10006A0003132508031D3F280130A3070318A40A18
:10007A000030A407831203132608F7000030F800A3
:10008A002808A0002008F9002708A1002108FA0082
:10009A000A168A118D270A128A1183120313A200E3
:1000AA002208A500FF30A0002008A807A81F1D28C5
:1000BA000130A0002008A70708302702031C1328D4
:1000CA002408FD002308FC000800831203132008FB
:1000DA002104031982282008F3002108F4000A16D3
:1000EA008A1166270A128A117630F3008930F400E1
:1000FA000A168A11CC270A128A11A230F300883014
:10010A00F4000A168A11CC270A128A1183120313E1
:10011A00A301103023020318D528A40108302402B1
:10012A000318C2282208F7000030F8002308FC0050
:10013A007C08F9002408FD007D08FA000A168A11D5
:10014A008D270A128A11013A031DAF287430F30071
:10015A008930B2287830F3008930F4000A168A11FF
:10016A0066270A128A110130FC007C0883120313E5
:10017A00A40708302402031C97287330F30089303F
:10018A00F4000A168A11CC270A128A110130FC00DF
:10019A007C0883120313A30710302302031C92283E
:1001AA002430F3008930F4000A168A11CC2708009B
:1001BA0083120313A4000130DE070318DF0A00309C
:1001CA00DF070330FC007C08A600A61B4F29A50107
:1001DA002508803A7C3E031849292108F70022089D
:1001EA00F8002608FC007C08F9002508FD007D08B7
:1001FA00FA000A168A118D270A128A11013A031D7A
:10020A003E29831203132308F7000030F80026085A
:10021A002007013EFC007C08F90025082407FD00A0
:10022A007D08FA000A168A118D270A128A11013AE4
:10023A00031D2329831203132008080083120313C2
:10024A0020082607FC00FD010318FD0AA01BFD0378
:10025A00A61BFD037D08803AFF0080307F02031D44
:10026A0038290F307C02031C3E298312031320080D
:10027A0008000130FC007C0883120313A507250837
:10028A00803A7C3E031CF228FF30FC007C08A6075B
:10029A00A61FEC280130FC007C08A007E028831286
:1002AA000313A600A301A401FF30A0002008A700A1
:1002BA00A801083028020318D129FF30A00020081D
:1002CA00A700A5010F30A0002008A900A91BC92971
:1002DA00270A031D87292608F7000030F800290895
:1002EA00A0002008F9002808A1002108FA000A162F
:1002FA008A118D270A128A1183120313A200220877
:10030A00A700C3292608F7000030F8002908A00032
:10031A002008F9002808A1002108FA000A168A1103
:10032A008D270A128A118312031327060319BA2981
:10033A002608F7000030F8002908A0002008F90074
:10034A002808A1002108FA000A168A118D270A1224
:10035A008A1183120313A2002208A7002708031D8B
:10036A00B829A501BA29A501A50A2503031DC32990
:10037A000130A3070318A40A0030A407FF30A00025
:10038A002008A907A91F6D290130A0002008A80785
:10039A0008302802031C62292408FD002308FC00F7
:1003AA00080083120313A2008030A0002008A300D3
:1003BA00A50108302502031808008030A000200893
:1003CA00A30025087C07A00020088400831380016D
:1003DA00A4010830240203181E2A2208F70000305C
:1003EA00F8002408A0002008F9002508A100210827
:1003FA00FA000A168A118D270A128A11013A031D78
:10040A00122A831203132308A00025087C07A100DF
:10041A002108840020088313800403108312031325
:10042A00A30C0130A0002008A40708302402031CF2
:10043A00F2298030A0002008A3002508083E7C0786
:10044A00A00020088400831380010830A00020083F
:10045A00A4001030240203185F2A2208F700003093
:10046A00F8002408A0002008F9002508A1002108A6
:10047A00FA000A168A118D270A128A11013A031DF7
:10048A00532A831203132308A0002508083E7C0779
:10049A00A10021088400200883138004031083121A
:1004AA000313A30C0130A0002008A4071030240273
:1004BA00031C322A0130A0002008A507DE29831276
:1004CA000313A4000330FC007C08A500A51BF22A34
:1004DA00A6012608803A7C3E0318EC2A2108F70078
:1004EA002208F8002508FC007C08F9002608FD000F
:1004FA007D08FA000A168A118D270A128A11013A12
:10050A00031DE12A831203132308F7000030F800C1
:10051A0025082007FC007C08F90026082407FD00AE
:10052A007D08FA000A168A118D270A128A11013AE1
:10053A00031DA12A0030080083120313240826078A
:10054A00FC00FD010318FD0AA41BFD03A61BFD0305
:10055A00FD1BC62A8312031324082607FC00FD018B
:10056A000318FD0AA41BFD03A61BFD037D08803AA0
:10057A00FF0080307F02031DC42A08307C02031C5E
:10058A00C82A003008008312031320082507FC003C
:10059A00FD010318FD0AA01BFD03A51BFD037D0831
:1005AA00803AFF0080307F02031DDD2A10307C0272
:1005BA00031CE12A003008000130FC007C08831289
:1005CA000313A6072608803A7C3E031C732AFF30D1
:1005DA00FC007C08A507A51F6D2A013008007008D9
:1005EA00F5007108F6006C2B760883120313FF00DE
:1005FA00750884000A128A150020F300730801396D
:10060A000800760883120313FF00750884000A1293
:10061A008A150020F300730C01390800760883124A
:10062A000313FF00750884000A128A150020F300DC
:10063A00730CF400740C0139080076088312031352
:10064A00FF00750884000A128A150020F300730C53
:10065A00F400F40C740C01390800760883120313B1
:10066A00FF00750884000A128A150020F300730E31
:10067A0001390800760883120313FF007508840005
:10068A000A128A150020F300730EF400740C013963
:10069A000800760883120313FF00750884000A1203
:1006AA008A150020F300730EF400F40C740C01395F
:1006BA000800760883120313FF00750884000A12E3
:1006CA008A150020F300730D730D013908007208B2
:1006DA00003A0319F92A013A0319062B033A0319B6
:1006EA00132B013A0319222B073A0319322B013A29
:1006FA0003193F2B033A03194E2B013A03195E2BB8
:10070A00862B080083120313A900A801A803A701D6
:10071A00A703A601AA012A08803A783E0318932C57
:10072A00FF30A700A0002008A800AB012B08803AE0
:10073A00703E03185D2C2A08031DB62B2908F70002
:10074A000030F8002B08A0002008F9002A08A100B0
:10075A002108FA000A168A118D270A128A11003A0C
:10076A00042C07302A06031DDB2B2908F70000306A
:10077A00F8002B08A0002008F9002A08A100210887
:10078A00FA000A168A118D270A128A11003A031DE5
:10079A00262C831203132908F7000030F8002B08CF
:1007AA00A0002008F9002A08FF3E122C2908F700A9
:1007BA000030F8002B08A0002008F9002A08A10040
:1007CA002108FA000A168A118D270A128A11003A9C
:1007DA00031D262C831203132908F7000030F800A2
:1007EA002B08A0002008F9002A08FF3EA1002108D2
:1007FA00FA000A168A118D270A128A11013A031D74
:10080A00262C831203132908F7000030F8002B085E
:10081A00A0002008F9002A08013EA1002108FA00D8
:10082A000A168A118D270A128A11013A031D262CEB
:10083A0083120313280A031D262C2B08A000200864
:10084A00A80083120313A81B522C0F302B06031D7A
:10085A00332C270A031D522C10304F2C2908F7007D
:10086A000030F8002B08013EA0002008F9002A08F1
:10087A00A1002108FA000A168A118D270A128A1184
:10088A00013A031D522C83120313270A031D522C0B
:10089A002B08013EA0002008A70001308312031391
:1008AA00A0002008AB072B08803A703E031CA02B3F
:1008BA00A81FA71B882C2808A000A101A01BA10320
:1008CA00A009A109A00A0319A10A2708A200A301E5
:1008DA00A21BA30320082207A40021080318210A47
:1008EA002307A5002508803AFF0080307F02031DF8
:1008FA00802C03302402031C882C0130831203133A
:10090A00A0002008A607013083120313A0002008C4
:10091A00AA072A08803A783E031C952B2608080065
:10092A008316031385110511851083160317881082
:10093A000811881183120313051585108030F00001
:10094A002530F1000A128A1512250A128A110A1292
:10095A008A15A0250A128A1100300A128A157122F4
:10096A000A128A11730883120313DF007208DE0069
:10097A005F08F1005E08F0000A168A1176270A124B
:10098A008A110A168A11BB270A128A1101308312A8
:10099A000313DE070318DF0A0030DF075F08F400DD
:1009AA005E08F30000300A128A15CF210A128A1152
:1009BA0083120313E4010230D4005408EC00E4016A
:1009CA000A128A1580210A128A1183120313D4008B
:1009DA005408E500E6010A128A11AB250A128A11A7
:1009EA00003A0319C62C831203136508D40054076E
:1009FA00123E840088300318013EFF000A128A154D
:100A0A0000200A128A116607D50001300310D50D9D
:100A1A00FF3E031D0B2D0310550D423ED6008830B4
:100A2A000318013ED7005608E0005708E1000130DC
:100A3A00DE070318DF0A0030DF076408D400540811
:100A4A00A0006008A1006108A200D030D5005508B6
:100A5A00A3006C080A128A1596270A128A118312B1
:100A6A000313D6005608D8006408D4005408A0001E
:100A7A006008A1006108A200D030D5005508A30083
:100A8A006C080A128A15CE240A128A1183120313D9
:100A9A005803031D6A2D0A168A1151270A128A1150
:100AAA00033083120313D6008A30D5005630D4009F
:100ABA00D40B5D2DD50B5D2DD60B5D2D642DD0305D
:100ACA000A128A15A9230A128A115B3083120313A8
:100ADA00A0008930A100D030D4005408A2000A1224
:100AEA008A116A200A128A110A168A1151270A12D1
:100AFA008A11831203135808031DCB2C6408D400EF
:100B0A005408A0006008A1006108A200D030D500F6
:100B1A005508A3006C080A128A158B240A128A1136
:100B2A00063083120313D6001330D500B130D40037
:100B3A00D40B9D2DD50B9D2DD60B9D2DA42D0130AB
:100B4A0083120313D4005408E4071C2D83120313E1
:100B5A00CA010F30B0003008C6000F30B0003008AC
:100B6A00C700D030C2008A30C300CE010314650D1D
:100B7A00123E840088300318013EFF000A128A15CB
:100B8A0000200A128A114E020318BC2F6508B00011
:100B9A003007123E840088300318013EFF000A1213
:100BAA008A1500200A128A114E07B100013003107B
:100BBA00B10DFF3E031DDC2D0310310D423EB20084
:100BCA0088300318013EB3003208E2003308E3001C
:100BDA006208AB006308AC00D030B0003008AD004A
:100BEA006C080A128A152C220A128A11831203131C
:100BFA00B1003108C4006208A6006308A700D0301B
:100C0A00B0003008A8006C080A128A152A230A12B2
:100C1A008A1183120313B1003108C5004408B000D9
:100C2A003008CF004508803AB0004F08803AB00239
:100C3A00031CB72F6408B0003008A0006208A100A6
:100C4A006308A200D030B1003108A3004F080A128D
:100C5A008A11DD200A128A1183120313B2003208A4
:100C6A00CD004D08B0003008A0006208A10063085A
:100C7A00A200D030B1003108A3004F080A128A112D
:100C8A0064220A128A11003A0319B02F831203133D
:100C9A00CA01CA0A4D08B0003008A0006208A100C3
:100CAA006308A200D030B1003108A300C030B200FE
:100CBA003208A4004F080A128A15D5260A128A1188
:100CCA00831203136208FC006308FD004D080A1230
:100CDA008A1511240A128A1183120313B000B10172
:100CEA003008CB003108CC00D0300A128A150A220B
:100CFA000A128A1183120313B0000A303002031851
:100D0A000C2F00304C020A3003194B0203180C2F27
:100D1A00C0300A128A1154210A128A117C098312DC
:100D2A000313B0007D09B100B00A0319B10AC0303B
:100D3A000A128A1187230A128A1183120313B20034
:100D4A00B3010310B20DB30DB209B309B20A031904
:100D5A00B30A4C08AD004B08AC000330AE000030BB
:100D6A00AF000A128A154E220A128A11831203133D
:100D7A002C09B4002D09B500B40A0319B50AC0300C
:100D8A000A128A1105200A128A117C088312031397
:100D9A00B6007D08B7000310B60DB70D0310B60DE7
:100DAA00B70DB609B709B60A0319B70AC0300A124D
:100DBA008A1595220A128A1183120313B800B901FF
:100DCA000A30FF000310B80DB90DFF0BE72E3608E5
:100DDA003807BA0037080318370A3907BB0034083E
:100DEA003A07BC0035080318350A3B07BD0032082C
:100DFA003C07BE0033080318330A3D07BF0030081A
:100E0A003E07C80031080318310A3F07952FC03042
:100E1A000A128A1154210A128A117C0983120313B5
:100E2A00B0007D09B100B00A0319B10AC0300A1234
:100E3A008A1187230A128A1183120313B200B3019B
:100E4A003208AC003308AD000330AE000030AF000A
:100E5A000A128A154E220A128A11831203132C09C6
:100E6A00B4002D09B500B40A0319B50A4C08AD003F
:100E7A004B08AC000530AE000030AF000A128A15EC
:100E8A004E220A128A11831203132C09B6002D0965
:100E9A00B700B60A0319B70AC0300A128A11052028
:100EAA000A128A117C0883120313B8007D08B9005C
:100EBA000310B80DB90DB809B909B80A0319B90A66
:100ECA00C0300A128A1595220A128A118312031354
:100EDA00BA00BB010A30FF000310BA0DBB0DFF0BAD
:100EEA00712F38083A07BC0039080318390A3B073A
:100EFA00BD0036083C07BE0037080318370A3D070D
:100F0A00BF0034083E07C00035080318350A3F07FA
:100F1A00C10030084007C80031080318310A4107E8
:100F2A00C9004308803AB0004908803A3002031DDC
:100F3A00A02F480842020318B02F8312031349084E
:100F4A00C3004808C2004E08B0003008C7004F0866
:100F5A00B0003008C600013083120313B000300815
:100F6A00CF07172E0130B0003008CE07BB2D4A0339
:100F7A00031DC72F4708B0003008E6004608B00036
:100F8A003008EC004A08080083135930840068309E
:100F9A000A168A116E270A128A11A0308400D030EC
:100FAA000A168A116E270A128A1183179030840052
:100FBA00D0300A168A116E270A128A118313E0307A
:100FCA00FD001730FE00AB30FF00D03084000A1657
:100FDA008A11E1270A128A116D30FD000930FE00DC
:100FEA007B30FF00683084000A168A11E1278301EA
:100FFA000A128A11952CFF1B0A2883137F1883175C
:10100A000008840A0319FF0A08007F087F398A004A
:10101A000408840A0319FF0A8200003402340234E5
:10102A00023404340234063404340A3404340E34E8
:10103A0001340F34043413340134143404340134C5
:10104A0000340834003440340034003402340034AC
:10105A00103400348034013400340A3400346434E7
:10106A000034E834033410342734013400341034A3
:10107A0000340034013400341034023402340234AF
:10108A00023400340F34003400340634033400349C
:10109A000034023406340434003403340634003491
:1010AA000034023403340134003400340734043485
:1010BA000034063402340234003401340734003474
:1010CA000034023402340334003400340734013467
:1010DA000034033402340234003404340734003454
:1010EA000034023402340634003403340334003446
:1010FA000034003406340234003400340334023439
:10110A000034023403340034003402340634003428
:10111A00003402340734023400340734023402340F
:10112A0000340434073404340034023402340734FB
:10113A00003401340734013400343C343C343C3448
:10114A003C343C343C343C343C343C343C343C3415
:10115A003C343C343C343C343C343C343C343C3405
:10116A003C344D3441345434523449345834313493
:10117A0036347834383400343C343C343C343C34EF
:10118A003C343C343C343C343C343C343C343C34D5
:10119A003C343C343C343C343C343C343C343C34C5
:1011AA004D34413454345234493458343434783414
:1011BA003434003469346E34643465347834203419
:1011CA003D342034253464342C342034733475345B
:1011DA0062345F3469346E3464346534783420346C
:1011EA003D34203425346434003470347234693424
:1011FA006E34743466345F3461346C346C345F3406
:10120A004D344134543452344934583434347834B3
:10121A00343400343C343C343C343C343C343C3488
:10122A003C343C343C343C343C343C343C343C3434
:10123A003C343C343C343C343C343C3400343E345E
:10124A003E343E343E343E343E343E343E343E3404
:10125A003E343E343E343E343E343E343E343E34F4
:10126A003E343E343E340034303431343234333454
:10127A0034343534363437343834393441344234FA
:10128A00433444344534463400343034313432340F
:10129A0033343434353436343734383439346134C9
:1012AA006234633464346534663400344D346134F2
:1012BA0069346E342034733463347234653465347B
:1012CA006E340034733469347A34653420343D34EE
:1012DA0020342534643400340D340A3400342A347A
:0A12EA0000343A3400345F3400345D
:1012F60001340034003400340234093083120313FD
:10130600A7000030A8000A128A1559250A128A1564
:10131600831203132108AA002008A9000A128A15BD
:10132600EC258312031327080800F10064008316D6
:1013360003178C1899297108831203178D003F3003
:10134600F0007008831603178C050C1403100C1894
:101356000314003003180130831203170C08080029
:10136600F5007508F4007408F6000130F20200304A
:10137600031CF303F302720A0319730A0319080024
:101386007008F40076088400740883138000013026
:10139600F4007408F607B829F6007408F500750815
:1013A600F7007708F5007508F00076080A128A1526
:1013B600DE220A128A157308F5007508F700770809
:1013C600F5007508F0007608013E0A128A15DE223D
:1013D6000800F70083120313051177080A128A150D
:1013E60050230A128A1574080A128A1550230A1203
:1013F6008A1575080A128A1550230A128A15760864
:101406000A128A1550238312031305150800F300E8
:101416000F30F2007208F400F41B2A2A7408F20056
:101426007208F00073080A168A1156270A128A15DE
:10143600013A031D242A7408013EFF3A013E103E7C
:101446000800FF30F2007208F407F41F112A10306A
:101456000800FD00013083120313DE070318DF0ABC
:101466000030DF072B08A0002C08A1002D08FC0087
:101476007C08A2007D080A128A1539260A128A15E6
:10148600023A031D492A7D08013E0800FF30FC0090
:101496007C08FD072D2AFC01FD01831203132C1C79
:1014A6005A2A2E08FC070318FD0A2F08FD070130EB
:1014B6000310AE0DAF0DFF3E031D5B2A0130031076
:1014C600AD0CAC0CFF3E031D622A2C082D04031D37
:1014D600502A7D08AD007C08AC000800F800F60133
:1014E600F70178080A128A1598210A128A15F4005B
:1014F600F5017408F500F4017408F6007508F700A4
:101506007808013E0A128A159821F400F50174083C
:10151600F6070318F70A7508F7077708F300760841
:10152600F2000800F500F401F6017608803A703EF4
:101536000318B72A7608F3007308F00075080A1630
:101546008A117F270A128A15013A031DAE2A013035
:10155600F3007308F4070130F3007308F607760802
:10156600803A703E031C9D2A740808007208831294
:101576000313FF00710884000A128A1500200A125C
:101586008A15003A03190800720883120313FF0034
:10159600710884000A128A1500200A128A150A1692
:1015A6008A115E270A128A150130F1070318F20A1A
:1015B6000030F207B92AF200831603178C18DF2AC7
:1015C6007208831203178D0070088C003F30F100FB
:1015D6007108831603178C058312031303108B1BE4
:1015E60003148B13831603170C1555308D00AA3080
:1015F6008D008C140C1183120313031C08008B1727
:101606000800F4007008F3007308F6007408F3008D
:101616007308F5000130F1020030031CF203F202F8
:10162600710A0319720A03190800760884008313E5
:101636000008F30075088400730880000130F30089
:101646007308F6070130F3007308F5070D2B8312B4
:101656000313AA000130DE070318DF0A0030DF0794
:101666002608A0002708A1002808A9002908A2002A
:101676002A080A128A1586260A128A15033A031DB3
:10168600492B831203132A08FF3E080001308312F8
:101696000313A9002908AA072D2BF1008030F000BA
:1016A6007008F200F301083073020318080071088D
:1016B60072050319622B831203138515652B83129A
:1016C600031385110310F20C85141030F000F00B93
:1016D6006A2B00008312031385101030F000F00B04
:1016E600722B00000130F0007008F307562B8312AE
:1016F6000313A000A10108302102031808002108E5
:101706002007F8007808840083130008F900790898
:10171600F4002108013EFA007A08F5002108083E87
:101726002007FB007B0884000008FC007C08F6000C
:101736002108013E0A128A15EC210A128A15013087
:10174600F800780883120313A1077E2BF800F7012F
:101756000F30F6007608F900F91B080001308312F5
:101766000313DE070318DF0A0030DF077908F600E7
:101776007608F00078080A168A117F270A128A1559
:10178600013A031DD52B7908F6007608F000780893
:101796000A128A15DA230A128A150130F60076082B
:1017A600F707AF2BFF30F6007608F907AF2BF400EA
:1017B6000F30F1007108F500F51B08007508F100FF
:1017C600F201F11BF2037208803A803C031DED2BF7
:1017D60071087002031C0C2C7508803A7F3E031CAE
:1017E600052C7508FF3E7407F10071088400831309
:1017F6000008F20075087407F30073088400720885
:1018060080000C2C75087407F1007108840083139E
:101816008001FF30F1007108F507DF2B83120313F7
:10182600A200A4012408803A7C3E03180800A30104
:101836002308803A7C3E0318472C7C08F7007D0875
:10184600F8002408A0002008F9002308A1002108B8
:10185600FA000A168A118D270A128A15013A031D03
:101866003C2C8312031324082207FF3A013E103E44
:101876000800013083120313A0002008A3072308E1
:10188600803A7C3E031C202C0130A0002008A407CF
:10189600152C0030FC000030FB000030FA00003050
:1018A600F900701C6A2C7408F907750803110318EF
:1018B600013E031DFA07760803110318013E031DB6
:1018C600FB07770803110318013E031DFC070130CF
:1018D600F8000310F40DF50DF60DF70DF80B6C2C52
:1018E60001300310F30CF20CF10CF00CFF3E031D5B
:1018F600742C7308720471047004031D542C7C0844
:10190600F3007B08F2007A08F1007908F00008007D
:1019160083120313A400A50104302502031808004E
:10192600A601043026020318C92C2108F700220854
:10193600F8002508FC007C08F9002608FD007D0853
:10194600FA000A168A118D270A128A15013A031D12
:10195600BF2C8312031325082007FC007C08F50022
:1019660026082407FD007D08F600F70123080A165D
:101976008A119C270A128A150130FC007C08831202
:101986000313A60704302602031C982C0130FC0022
:101996007C08A5078F2C83120313A400A50104302D
:1019A600250203180800A6010430260203180D2D8F
:1019B6002108F7002208F8002508FC007C08F90039
:1019C6002608FD007D08FA000A168A118D270A12DC
:1019D6008A15013A031D032D8312031325082007D8
:1019E600FC007C08F50026082407FD007D08F600AB
:1019F600F701F70A23080A168A119C270A128A1584
:101A06000130FC007C0883120313A607043026026B
:101A1600031CDB2C0130FC007C08A507D22CFF3010
:101A260083120313ED00F2007208EE00252D8130BB
:101A3600212D4030212D2A30212D243083160313E9
:101A46009900472D7108253A0319332D6E3A03196B
:101A5600382D3B3A03193D2DF33A0319422D472DF4
:101A66007008803A03191A2D472D7008003A031999
:101A76001C2D472D7008803A03191E2D472D70081E
:101A8600403A0319202D472D831603131813981671
:101A9600181218158312031398171813181698118D
:101AA600831603138C160B178B1708008312031368
:101AB6006B08F3006A08F2006908F1006808F00094
:101AC6004130F700C630F6004E30F5006D30F400B8
:101AD6000A128A154C240A128A15730883120313F4
:101AE600EB007208EA007108E9007008E800393076
:101AF600E807303003183130E907003003180130A9
:101B0600EA07003003180130EB076808A2006908ED
:101B1600A3006A08A4006B08A5001030A600250DD6
:101B2600A50CA40CA30CA20CA60B922DFF3022052B
:101B3600A0007F302305A1000800F4010930F80059
:101B46007808F500F60109300A128A15EC210A1206
:101B56008A150F30F8007808F4000A30F900790881
:101B6600F5000F30FA007A08F6000A300A128A15D4
:101B7600EC210A128A150730F8007808F4000B30B9
:101B8600F9007908F5000730FA007A08F6000B30FC
:101B96000A128A15EC210A128A15F401F40A0C308D
:101BA600F8007808F500F601F60A0C300A128A15D4
:101BB600EC210A128A15FF30F8007808F400F501C6
:101BC600FF30F9007908F60000300A128A15EC2178
:101BD600080083120313AC01AA1FF82DA909AA094C
:101BE600A90A0319AA0AAC01AC0AA81FFF2DA70966
:101BF600A809A70A0319A80A2708280403192C2EDE
:101C0600AB01AB0AA81B132E01300310A70DA80DBC
:101C1600FF3E031D082E0130FD007D08AB07052E93
:101C260028082A02031D192E27082902031C212E23
:101C36002708A9022808031CAA03AA0201300310D8
:101C4600A80CA70CFF3E031D222E0130AB02031D7C
:101C5600132E2C080319342EA909AA09A90A031957
:101C6600AA0A2A08A8002908A70008008312031355
:101C7600A8000330A3002308A900A91B842EAA01EB
:101C86002A08803A7C3E03187E2E2008F700210899
:101C9600F8002908A3002308F9002A08A40024084C
:101CA600FA000A168A118D270A128A15013A031DAF
:101CB600732E831203132A08A300A401A31BA403F3
:101CC6002808A500A601A51BA603230825072608A4
:101CD6000318260A2407A700A71F732E0230080040
:101CE600013083120313A3002308AA072A08803AA7
:101CF6007C3E031C482EFF30A3002308A907A91F1A
:101D0600422E0030080083120313A3000330FC00A8
:101D16007C08A400A41BD32EA5012508803A7C3E8E
:101D26000318CD2E2008F7002108F8002408FC002F
:101D36007C08F9002508FD007D08FA000A168A11BC
:101D46008D270A128A15013A031DC22E8312031328
:101D560023082507FC00FD010318FD0AA31BFD034C
:101D6600A51BFD037D08803AFF0080307F02031D1E
:101D7600BE2E08307C02031CC22E03300800013040
:101D8600FC007C0883120313A5072508803A7C3ED5
:101D9600031C952EFF30FC007C08A407A41F8F2E81
:101DA6000030080083120313A7001030A50000308E
:101DB600A6002308FC007C08F0002608F20025088F
:101DC600F10024080A128A1504230A128A158312BE
:101DD6000313A8010430280203180800A9010430DF
:101DE60029020318282F2108F7002208F8002808DE
:101DF600FC007C08F9002908FD007D08FA000A1697
:101E06008A118D270A128A15013A031D1E2F831285
:101E1600031328082007FC007C08F500290827077B
:101E2600FD007D08F600F701F70A24080A168A1154
:101E36009C270A128A150130FC007C0883120313C2
:101E4600A90704302902031CF62E0130FC007C0889
:101E5600A807ED2EF3007308F2007208F4007B2F3A
:101E6600740884007108013983130010031D0014DF
:101E76000800740884007108013983138010031D5B
:101E86008014080074088400710801398313001156
:101E9600031D0015080074088400710801398313B6
:101EA6008011031D8015080074088400710801392B
:101EB60083130012031D00160800740884007108BD
:101EC600013983138012031D8016080074088400EC
:101ED6007108013983130013031D001708007408E5
:101EE60084007108013983138013031D80170800CD
:101EF6007008003A0319332F013A03193C2F033AAD
:101F06000319452F013A03194E2F073A0319572F84
:101F1600013A0319602F033A0319692F013A03198D
:101F2600722F952F080083120313A4000330FC00C0
:101F36007C08A600A61BFE2FA5012508803A7C3E3C
:101F46000318F82F2108F7002208F8002608FC00DD
:101F56007C08F9002508FD007D08FA000A168A119A
:101F66008D270A128A15013A031DED2F83120313DA
:101F760020082607FC00FD010318FD0AA01BFD032F
:101F8600A61BFD037D08803AFF0080307F02031DFB
:101F9600CE2F0F307C02031CD22F01300800831293
:101FA60003132308F7000030F80026082007013E37
:101FB600FC007C08F90025082407FD007D08FA00CE
:101FC6000A168A118D270A128A15013A031DED2F6A
:101FD600013008000130FC007C0883120313A507BA
:101FE6002508803A7C3E031CA52FFF30FC007C08A8
:0A1FF600A607A61F9F2F0030080069
:102EA200D0300A168A11EE270800F1007108031DBE
:102EB2005C2F0130080000300800F0008312031379
:102EC2000C1E5F2F7008990008007308F100740847
:102ED200F2000A128A15B922080064008001840AED
:102EE20004060319003404066F2F700883120313BB
:102EF200E8007108E900EA01EB010800F20070083D
:102F02007207F100710884008313000A031D8B2FDE
:102F1200013008000030080079087707F0007808CF
:102F22000318013EF1007A08FB007B08F2000A1246
:102F32008A11F4220800FA007608F8007808F000F6
:102F42007708F9007908F10075087A070A128A15DC
:102F52002D270800003400340034403454345634F1
:102F620056347E347E347E347E347E347E347E34F7
:102F72007E347E340030F000F1001030F200003078
:102F8200F300D0300A128A15B3210A168A110A16E2
:102F92008A11512708007308F1007408F2000A121E
:102FA2008A15B9220A168A117130F1008930F200AD
:102FB2000A128A15B92208007E088A007F08820058
:102FC200DD270A168A118000840A04087D06031987
:102FD2000034FF0A0319FE0AE12F83120313A6002D
:102FE2002730FD007D08FC0026080A128A11D6212E
:0E2FF2000A168A1127300A128A157A2308005F
:04400E003CFFFFFE76
:00000001FF
